{
  "contractName": "SeerOracle",
  "abi": [
    {
      "inputs": [
        {
          "internalType": "int256",
          "name": "_price",
          "type": "int256"
        },
        {
          "internalType": "string",
          "name": "_symbol",
          "type": "string"
        },
        {
          "internalType": "string",
          "name": "_description",
          "type": "string"
        },
        {
          "internalType": "uint256",
          "name": "_version",
          "type": "uint256"
        },
        {
          "internalType": "uint8",
          "name": "_decimal",
          "type": "uint8"
        }
      ],
      "stateMutability": "nonpayable",
      "type": "constructor"
    },
    {
      "anonymous": false,
      "inputs": [
        {
          "indexed": true,
          "internalType": "int256",
          "name": "current",
          "type": "int256"
        },
        {
          "indexed": true,
          "internalType": "uint256",
          "name": "roundId",
          "type": "uint256"
        },
        {
          "indexed": false,
          "internalType": "uint256",
          "name": "updatedAt",
          "type": "uint256"
        }
      ],
      "name": "AnswerUpdated",
      "type": "event"
    },
    {
      "anonymous": false,
      "inputs": [
        {
          "indexed": false,
          "internalType": "address",
          "name": "_from",
          "type": "address"
        },
        {
          "indexed": false,
          "internalType": "int256",
          "name": "_price",
          "type": "int256"
        },
        {
          "indexed": false,
          "internalType": "string",
          "name": "_symbol",
          "type": "string"
        },
        {
          "indexed": false,
          "internalType": "uint256",
          "name": "_updateTime",
          "type": "uint256"
        }
      ],
      "name": "InitAsset",
      "type": "event"
    },
    {
      "anonymous": false,
      "inputs": [
        {
          "indexed": false,
          "internalType": "uint8",
          "name": "version",
          "type": "uint8"
        }
      ],
      "name": "Initialized",
      "type": "event"
    },
    {
      "anonymous": false,
      "inputs": [
        {
          "indexed": true,
          "internalType": "uint256",
          "name": "roundId",
          "type": "uint256"
        },
        {
          "indexed": true,
          "internalType": "address",
          "name": "startedBy",
          "type": "address"
        },
        {
          "indexed": false,
          "internalType": "uint256",
          "name": "startedAt",
          "type": "uint256"
        }
      ],
      "name": "NewRound",
      "type": "event"
    },
    {
      "anonymous": false,
      "inputs": [
        {
          "indexed": true,
          "internalType": "address",
          "name": "previousOwner",
          "type": "address"
        },
        {
          "indexed": true,
          "internalType": "address",
          "name": "newOwner",
          "type": "address"
        }
      ],
      "name": "OwnershipTransferred",
      "type": "event"
    },
    {
      "anonymous": false,
      "inputs": [
        {
          "indexed": true,
          "internalType": "bytes32",
          "name": "role",
          "type": "bytes32"
        },
        {
          "indexed": true,
          "internalType": "bytes32",
          "name": "previousAdminRole",
          "type": "bytes32"
        },
        {
          "indexed": true,
          "internalType": "bytes32",
          "name": "newAdminRole",
          "type": "bytes32"
        }
      ],
      "name": "RoleAdminChanged",
      "type": "event"
    },
    {
      "anonymous": false,
      "inputs": [
        {
          "indexed": true,
          "internalType": "bytes32",
          "name": "role",
          "type": "bytes32"
        },
        {
          "indexed": true,
          "internalType": "address",
          "name": "account",
          "type": "address"
        },
        {
          "indexed": true,
          "internalType": "address",
          "name": "sender",
          "type": "address"
        }
      ],
      "name": "RoleGranted",
      "type": "event"
    },
    {
      "anonymous": false,
      "inputs": [
        {
          "indexed": true,
          "internalType": "bytes32",
          "name": "role",
          "type": "bytes32"
        },
        {
          "indexed": true,
          "internalType": "address",
          "name": "account",
          "type": "address"
        },
        {
          "indexed": true,
          "internalType": "address",
          "name": "sender",
          "type": "address"
        }
      ],
      "name": "RoleRevoked",
      "type": "event"
    },
    {
      "anonymous": false,
      "inputs": [
        {
          "indexed": false,
          "internalType": "address",
          "name": "_from",
          "type": "address"
        },
        {
          "indexed": false,
          "internalType": "int256",
          "name": "_price",
          "type": "int256"
        },
        {
          "indexed": false,
          "internalType": "uint80",
          "name": "_round",
          "type": "uint80"
        },
        {
          "indexed": false,
          "internalType": "uint256",
          "name": "_updateTime",
          "type": "uint256"
        }
      ],
      "name": "UpdateAnswer",
      "type": "event"
    },
    {
      "inputs": [],
      "name": "DEFAULT_ADMIN_ROLE",
      "outputs": [
        {
          "internalType": "bytes32",
          "name": "",
          "type": "bytes32"
        }
      ],
      "stateMutability": "view",
      "type": "function",
      "constant": true
    },
    {
      "inputs": [],
      "name": "GET_PRICE_ROLE",
      "outputs": [
        {
          "internalType": "bytes32",
          "name": "",
          "type": "bytes32"
        }
      ],
      "stateMutability": "view",
      "type": "function",
      "constant": true
    },
    {
      "inputs": [
        {
          "internalType": "uint256",
          "name": "",
          "type": "uint256"
        }
      ],
      "name": "GetAnswer",
      "outputs": [
        {
          "internalType": "int256",
          "name": "",
          "type": "int256"
        }
      ],
      "stateMutability": "view",
      "type": "function",
      "constant": true
    },
    {
      "inputs": [
        {
          "internalType": "uint256",
          "name": "",
          "type": "uint256"
        }
      ],
      "name": "GetTimestamp",
      "outputs": [
        {
          "internalType": "uint256",
          "name": "",
          "type": "uint256"
        }
      ],
      "stateMutability": "view",
      "type": "function",
      "constant": true
    },
    {
      "inputs": [],
      "name": "REGISTER_ASSET_ROLE",
      "outputs": [
        {
          "internalType": "bytes32",
          "name": "",
          "type": "bytes32"
        }
      ],
      "stateMutability": "view",
      "type": "function",
      "constant": true
    },
    {
      "inputs": [],
      "name": "ROUND_DEFAULT",
      "outputs": [
        {
          "internalType": "uint80",
          "name": "",
          "type": "uint80"
        }
      ],
      "stateMutability": "view",
      "type": "function",
      "constant": true
    },
    {
      "inputs": [],
      "name": "SET_PRICE_ROLE",
      "outputs": [
        {
          "internalType": "bytes32",
          "name": "",
          "type": "bytes32"
        }
      ],
      "stateMutability": "view",
      "type": "function",
      "constant": true
    },
    {
      "inputs": [],
      "name": "UPDATE_ROUND_ROLE",
      "outputs": [
        {
          "internalType": "bytes32",
          "name": "",
          "type": "bytes32"
        }
      ],
      "stateMutability": "view",
      "type": "function",
      "constant": true
    },
    {
      "inputs": [
        {
          "internalType": "bytes32",
          "name": "role",
          "type": "bytes32"
        }
      ],
      "name": "getRoleAdmin",
      "outputs": [
        {
          "internalType": "bytes32",
          "name": "",
          "type": "bytes32"
        }
      ],
      "stateMutability": "view",
      "type": "function",
      "constant": true
    },
    {
      "inputs": [
        {
          "internalType": "bytes32",
          "name": "role",
          "type": "bytes32"
        },
        {
          "internalType": "address",
          "name": "account",
          "type": "address"
        }
      ],
      "name": "grantRole",
      "outputs": [],
      "stateMutability": "nonpayable",
      "type": "function"
    },
    {
      "inputs": [
        {
          "internalType": "bytes32",
          "name": "role",
          "type": "bytes32"
        },
        {
          "internalType": "address",
          "name": "account",
          "type": "address"
        }
      ],
      "name": "hasRole",
      "outputs": [
        {
          "internalType": "bool",
          "name": "",
          "type": "bool"
        }
      ],
      "stateMutability": "view",
      "type": "function",
      "constant": true
    },
    {
      "inputs": [],
      "name": "owner",
      "outputs": [
        {
          "internalType": "address",
          "name": "",
          "type": "address"
        }
      ],
      "stateMutability": "view",
      "type": "function",
      "constant": true
    },
    {
      "inputs": [],
      "name": "renounceOwnership",
      "outputs": [],
      "stateMutability": "nonpayable",
      "type": "function"
    },
    {
      "inputs": [
        {
          "internalType": "bytes32",
          "name": "role",
          "type": "bytes32"
        },
        {
          "internalType": "address",
          "name": "account",
          "type": "address"
        }
      ],
      "name": "renounceRole",
      "outputs": [],
      "stateMutability": "nonpayable",
      "type": "function"
    },
    {
      "inputs": [
        {
          "internalType": "bytes32",
          "name": "role",
          "type": "bytes32"
        },
        {
          "internalType": "address",
          "name": "account",
          "type": "address"
        }
      ],
      "name": "revokeRole",
      "outputs": [],
      "stateMutability": "nonpayable",
      "type": "function"
    },
    {
      "inputs": [
        {
          "internalType": "bytes4",
          "name": "interfaceId",
          "type": "bytes4"
        }
      ],
      "name": "supportsInterface",
      "outputs": [
        {
          "internalType": "bool",
          "name": "",
          "type": "bool"
        }
      ],
      "stateMutability": "view",
      "type": "function",
      "constant": true
    },
    {
      "inputs": [
        {
          "internalType": "address",
          "name": "newOwner",
          "type": "address"
        }
      ],
      "name": "transferOwnership",
      "outputs": [],
      "stateMutability": "nonpayable",
      "type": "function"
    },
    {
      "inputs": [],
      "name": "initialize",
      "outputs": [],
      "stateMutability": "nonpayable",
      "type": "function"
    },
    {
      "inputs": [
        {
          "internalType": "int256",
          "name": "_price",
          "type": "int256"
        }
      ],
      "name": "updateAnswer",
      "outputs": [],
      "stateMutability": "nonpayable",
      "type": "function"
    },
    {
      "inputs": [
        {
          "internalType": "uint80",
          "name": "_roundId",
          "type": "uint80"
        },
        {
          "internalType": "int256",
          "name": "_answer",
          "type": "int256"
        },
        {
          "internalType": "uint256",
          "name": "_timestamp",
          "type": "uint256"
        },
        {
          "internalType": "uint256",
          "name": "_startedAt",
          "type": "uint256"
        }
      ],
      "name": "updateRoundData",
      "outputs": [],
      "stateMutability": "nonpayable",
      "type": "function"
    },
    {
      "inputs": [],
      "name": "getAssetPrice",
      "outputs": [
        {
          "internalType": "int256",
          "name": "",
          "type": "int256"
        }
      ],
      "stateMutability": "view",
      "type": "function",
      "constant": true
    },
    {
      "inputs": [],
      "name": "latestAnswer",
      "outputs": [
        {
          "internalType": "int256",
          "name": "",
          "type": "int256"
        }
      ],
      "stateMutability": "view",
      "type": "function",
      "constant": true
    },
    {
      "inputs": [],
      "name": "latestTimestamp",
      "outputs": [
        {
          "internalType": "uint256",
          "name": "",
          "type": "uint256"
        }
      ],
      "stateMutability": "view",
      "type": "function",
      "constant": true
    },
    {
      "inputs": [
        {
          "internalType": "uint80",
          "name": "_roundId",
          "type": "uint80"
        }
      ],
      "name": "getAnswer",
      "outputs": [
        {
          "internalType": "int256",
          "name": "",
          "type": "int256"
        }
      ],
      "stateMutability": "view",
      "type": "function",
      "constant": true
    },
    {
      "inputs": [
        {
          "internalType": "uint80",
          "name": "_roundId",
          "type": "uint80"
        }
      ],
      "name": "getTimestamp",
      "outputs": [
        {
          "internalType": "uint256",
          "name": "",
          "type": "uint256"
        }
      ],
      "stateMutability": "view",
      "type": "function",
      "constant": true
    },
    {
      "inputs": [],
      "name": "latestRound",
      "outputs": [
        {
          "internalType": "uint80",
          "name": "",
          "type": "uint80"
        }
      ],
      "stateMutability": "view",
      "type": "function",
      "constant": true
    },
    {
      "inputs": [],
      "name": "decimals",
      "outputs": [
        {
          "internalType": "uint8",
          "name": "",
          "type": "uint8"
        }
      ],
      "stateMutability": "view",
      "type": "function",
      "constant": true
    },
    {
      "inputs": [],
      "name": "description",
      "outputs": [
        {
          "internalType": "string",
          "name": "",
          "type": "string"
        }
      ],
      "stateMutability": "view",
      "type": "function",
      "constant": true
    },
    {
      "inputs": [],
      "name": "version",
      "outputs": [
        {
          "internalType": "uint256",
          "name": "",
          "type": "uint256"
        }
      ],
      "stateMutability": "view",
      "type": "function",
      "constant": true
    },
    {
      "inputs": [
        {
          "internalType": "uint80",
          "name": "_roundId",
          "type": "uint80"
        }
      ],
      "name": "getRoundData",
      "outputs": [
        {
          "internalType": "uint80",
          "name": "",
          "type": "uint80"
        },
        {
          "internalType": "int256",
          "name": "",
          "type": "int256"
        },
        {
          "internalType": "uint256",
          "name": "",
          "type": "uint256"
        },
        {
          "internalType": "uint256",
          "name": "",
          "type": "uint256"
        },
        {
          "internalType": "uint80",
          "name": "",
          "type": "uint80"
        }
      ],
      "stateMutability": "view",
      "type": "function",
      "constant": true
    },
    {
      "inputs": [],
      "name": "latestRoundData",
      "outputs": [
        {
          "internalType": "uint80",
          "name": "",
          "type": "uint80"
        },
        {
          "internalType": "int256",
          "name": "",
          "type": "int256"
        },
        {
          "internalType": "uint256",
          "name": "",
          "type": "uint256"
        },
        {
          "internalType": "uint256",
          "name": "",
          "type": "uint256"
        },
        {
          "internalType": "uint80",
          "name": "",
          "type": "uint80"
        }
      ],
      "stateMutability": "view",
      "type": "function",
      "constant": true
    }
  ],
  "bytecode": "0x60806040523480156200001157600080fd5b50604051620016da380380620016da8339810160408190526200003491620002d5565b60cf85905560d080546001600160501b031916600117905583514290620000639060d190602088019062000155565b5060d281905583516200007e9060cb90602087019062000155565b5060ca83905560c9805460ff191660ff841617905560016000527fe7bf1de387f1223f0fc355696e043550abf1cecefa85fce0e824dbbcb1125e728690557f64c45f359ea2f8a06c7d9522781502fc36217a93bbdf992266ddda137e19fb1981905560ce6020527f2c64b4c28102eb31817db0aae9385bd83769912689d15cb6b0f59dd7eff206138190556040517f72c1dd89ce18863b014e808a73b45508520be84f5210f055f43226468b811bd290620001419033908990899086906200036f565b60405180910390a1505050505050620003ff565b8280546200016390620003c2565b90600052602060002090601f016020900481019282620001875760008555620001d2565b82601f10620001a257805160ff1916838001178555620001d2565b82800160010185558215620001d2579182015b82811115620001d2578251825591602001919060010190620001b5565b50620001e0929150620001e4565b5090565b5b80821115620001e05760008155600101620001e5565b634e487b7160e01b600052604160045260246000fd5b60005b838110156200022e57818101518382015260200162000214565b838111156200023e576000848401525b50505050565b600082601f8301126200025657600080fd5b81516001600160401b0380821115620002735762000273620001fb565b604051601f8301601f19908116603f011681019082821181831017156200029e576200029e620001fb565b81604052838152866020858801011115620002b857600080fd5b620002cb84602083016020890162000211565b9695505050505050565b600080600080600060a08688031215620002ee57600080fd5b855160208701519095506001600160401b03808211156200030e57600080fd5b6200031c89838a0162000244565b955060408801519150808211156200033357600080fd5b50620003428882890162000244565b93505060608601519150608086015160ff811681146200036157600080fd5b809150509295509295909350565b60018060a01b03851681528360208201526080604082015260008351806080840152620003a48160a085016020880162000211565b606083019390935250601f91909101601f19160160a0019392505050565b600181811c90821680620003d757607f821691505b60208210811415620003f957634e487b7160e01b600052602260045260246000fd5b50919050565b6112cb806200040f6000396000f3fe608060405234801561001057600080fd5b50600436106101e55760003560e01c806374e805e91161010f578063a7d42d08116100a2578063e54f088011610071578063e54f0880146102e3578063f2fde38b146104d6578063f35bfacd146104e9578063feaf968c1461051257600080fd5b8063a7d42d0814610469578063a87a20ce14610489578063b0cb41bf1461049c578063d547741f146104c357600080fd5b806391d14854116100de57806391d14854146103b65780639a6fc8f5146103c9578063a1adaac114610441578063a217fddf1461046157600080fd5b806374e805e9146103645780638129fc1c1461038b5780638205bf6a146103935780638da5cb5b1461039b57600080fd5b80634aa2011f11610187578063668a0f0211610156578063668a0f021461031a578063715018a61461033f57806371aab96c146103475780637284e4161461034f57600080fd5b80634aa2011f146102d057806350d25bcd146102e3578063525289cd146102eb57806354fd4d501461031257600080fd5b80632f2ff15d116101c35780632f2ff15d1461026c578063313ce5671461028157806336568abe146102965780633e096fb3146102a957600080fd5b806301ffc9a7146101ea5780631acce90314610212578063248a9ca314610249575b600080fd5b6101fd6101f8366004610f71565b61053e565b60405190151581526020015b60405180910390f35b61023b610220366004610fb2565b6001600160501b0316600090815260cc602052604090205490565b604051908152602001610209565b61023b610257366004610fcd565b60009081526065602052604090206001015490565b61027f61027a366004610ffd565b610575565b005b60c95460405160ff9091168152602001610209565b61027f6102a4366004610ffd565b61059f565b61023b7fa2394e6744b6ec68a24ffedd381e98db08904cd33f0ef2eb36508a7c729f9c8681565b61027f6102de366004611029565b610622565b60cf5461023b565b61023b7f6e89e1cb0516257354943b473674c711e9b79875453c1fb429d9d8fe1101cf4b81565b60ca5461023b565b60d0546001600160501b03165b6040516001600160501b039091168152602001610209565b61027f6106da565b610327600181565b610357610740565b6040516102099190611092565b61023b7f415cb709e73494ed53475231a09b6302063bb747def39d02d8a6002d338f943681565b61027f6107d2565b60d25461023b565b6097546040516001600160a01b039091168152602001610209565b6101fd6103c4366004610ffd565b6108d0565b61040d6103d7366004610fb2565b6001600160501b038116600090815260cc602090815260408083205460ce83528184205460cd9093529220549293919290918490565b604080516001600160501b03968716815260208101959095528401929092526060830152909116608082015260a001610209565b61023b61044f366004610fcd565b60cd6020526000908152604090205481565b61023b600081565b61023b610477366004610fcd565b60cc6020526000908152604090205481565b61027f610497366004610fcd565b6108fb565b61023b7f12040a8b50f78dc13ba2e2649d4ae0985898638554a951beef988c61211928e581565b61027f6104d1366004610ffd565b610a32565b61027f6104e43660046110c5565b610a57565b61023b6104f7366004610fb2565b6001600160501b0316600090815260cd602052604090205490565b60d05460cf546001600160501b03909116600081815260ce602052604090205460d2549192918361040d565b60006001600160e01b03198216637965db0b60e01b148061056f57506301ffc9a760e01b6001600160e01b03198316145b92915050565b60008281526065602052604090206001015461059081610b1f565b61059a8383610b29565b505050565b6001600160a01b03811633146106145760405162461bcd60e51b815260206004820152602f60248201527f416363657373436f6e74726f6c3a2063616e206f6e6c792072656e6f756e636560448201526e103937b632b9903337b91039b2b63360891b60648201526084015b60405180910390fd5b61061e8282610baf565b5050565b7f6e89e1cb0516257354943b473674c711e9b79875453c1fb429d9d8fe1101cf4b61064c81610b1f565b600060cc6000876001600160501b031681526020019081526020016000205413604051806040016040528060018152602001603560f81b815250906106a45760405162461bcd60e51b815260040161060b9190611092565b50506001600160501b03909316600090815260cc602090815260408083209490945560cd81528382209290925560ce9091522055565b6097546001600160a01b031633146107345760405162461bcd60e51b815260206004820181905260248201527f4f776e61626c653a2063616c6c6572206973206e6f7420746865206f776e6572604482015260640161060b565b61073e6000610c16565b565b606060cb805461074f906110e0565b80601f016020809104026020016040519081016040528092919081815260200182805461077b906110e0565b80156107c85780601f1061079d576101008083540402835291602001916107c8565b820191906000526020600020905b8154815290600101906020018083116107ab57829003601f168201915b5050505050905090565b60006107de6001610c68565b905080156107f6576000805461ff0019166101001790555b6107fe610cf5565b610809600033610d60565b6108337fa2394e6744b6ec68a24ffedd381e98db08904cd33f0ef2eb36508a7c729f9c8633610d60565b61085d7f415cb709e73494ed53475231a09b6302063bb747def39d02d8a6002d338f943633610d60565b6108877f6e89e1cb0516257354943b473674c711e9b79875453c1fb429d9d8fe1101cf4b33610d60565b80156108cd576000805461ff0019169055604051600181527f7f26b83ff96e1f2b6a682f133852f6798a09c465da95921460cefb38474024989060200160405180910390a15b50565b60009182526065602090815260408084206001600160a01b0393909316845291905290205460ff1690565b7f415cb709e73494ed53475231a09b6302063bb747def39d02d8a6002d338f943661092581610b1f565b6040805180820190915260018152601960f91b60208201526000831361095e5760405162461bcd60e51b815260040161060b9190611092565b5060cf82905560d0805442916001600160501b0390911690600061098183611131565b82546101009290920a6001600160501b0381810219909316918316021790915560d283905560d080548216600090815260cc6020908152604080832089905583548516835260cd825280832087905583548516835260ce8252918290208690559154815133815292830188905290921691810191909152606081018390527f9305153981cf14bc1e2f0d93e9289eb1da0298b7d02ffe52aba133579d037429915060800160405180910390a1505050565b600082815260656020526040902060010154610a4d81610b1f565b61059a8383610baf565b6097546001600160a01b03163314610ab15760405162461bcd60e51b815260206004820181905260248201527f4f776e61626c653a2063616c6c6572206973206e6f7420746865206f776e6572604482015260640161060b565b6001600160a01b038116610b165760405162461bcd60e51b815260206004820152602660248201527f4f776e61626c653a206e6577206f776e657220697320746865207a65726f206160448201526564647265737360d01b606482015260840161060b565b6108cd81610c16565b6108cd8133610d6a565b610b3382826108d0565b61061e5760008281526065602090815260408083206001600160a01b03851684529091529020805460ff19166001179055610b6b3390565b6001600160a01b0316816001600160a01b0316837f2f8788117e7eff1d82e926ec794901d17c78024a50270940304540a733656f0d60405160405180910390a45050565b610bb982826108d0565b1561061e5760008281526065602090815260408083206001600160a01b0385168085529252808320805460ff1916905551339285917ff6391f5c32d9c69d2a47ea670b442974b53935d1edc7fd64eb21e047a839171b9190a45050565b609780546001600160a01b038381166001600160a01b0319831681179093556040519116919082907f8be0079c531659141344cd1fd0a4f28419497f9722a3daafe3b4186f6b6457e090600090a35050565b60008054610100900460ff1615610caf578160ff166001148015610c8b5750303b155b610ca75760405162461bcd60e51b815260040161060b90611158565b506000919050565b60005460ff808416911610610cd65760405162461bcd60e51b815260040161060b90611158565b506000805460ff191660ff92909216919091179055600190565b919050565b600054610100900460ff1661073e5760405162461bcd60e51b815260206004820152602b60248201527f496e697469616c697a61626c653a20636f6e7472616374206973206e6f74206960448201526a6e697469616c697a696e6760a81b606482015260840161060b565b61061e8282610b29565b610d7482826108d0565b61061e57610d8c816001600160a01b03166014610dce565b610d97836020610dce565b604051602001610da89291906111a6565b60408051601f198184030181529082905262461bcd60e51b825261060b91600401611092565b60606000610ddd83600261121b565b610de890600261123a565b67ffffffffffffffff811115610e0057610e00611252565b6040519080825280601f01601f191660200182016040528015610e2a576020820181803683370190505b509050600360fc1b81600081518110610e4557610e45611268565b60200101906001600160f81b031916908160001a905350600f60fb1b81600181518110610e7457610e74611268565b60200101906001600160f81b031916908160001a9053506000610e9884600261121b565b610ea390600161123a565b90505b6001811115610f1b576f181899199a1a9b1b9c1cb0b131b232b360811b85600f1660108110610ed757610ed7611268565b1a60f81b828281518110610eed57610eed611268565b60200101906001600160f81b031916908160001a90535060049490941c93610f148161127e565b9050610ea6565b508315610f6a5760405162461bcd60e51b815260206004820181905260248201527f537472696e67733a20686578206c656e67746820696e73756666696369656e74604482015260640161060b565b9392505050565b600060208284031215610f8357600080fd5b81356001600160e01b031981168114610f6a57600080fd5b80356001600160501b0381168114610cf057600080fd5b600060208284031215610fc457600080fd5b610f6a82610f9b565b600060208284031215610fdf57600080fd5b5035919050565b80356001600160a01b0381168114610cf057600080fd5b6000806040838503121561101057600080fd5b8235915061102060208401610fe6565b90509250929050565b6000806000806080858703121561103f57600080fd5b61104885610f9b565b966020860135965060408601359560600135945092505050565b60005b8381101561107d578181015183820152602001611065565b8381111561108c576000848401525b50505050565b60208152600082518060208401526110b1816040850160208701611062565b601f01601f19169190910160400192915050565b6000602082840312156110d757600080fd5b610f6a82610fe6565b600181811c908216806110f457607f821691505b6020821081141561111557634e487b7160e01b600052602260045260246000fd5b50919050565b634e487b7160e01b600052601160045260246000fd5b60006001600160501b038083168181141561114e5761114e61111b565b6001019392505050565b6020808252602e908201527f496e697469616c697a61626c653a20636f6e747261637420697320616c72656160408201526d191e481a5b9a5d1a585b1a5e995960921b606082015260800190565b7f416363657373436f6e74726f6c3a206163636f756e74200000000000000000008152600083516111de816017850160208801611062565b7001034b99036b4b9b9b4b733903937b6329607d1b601791840191820152835161120f816028840160208801611062565b01602801949350505050565b60008160001904831182151516156112355761123561111b565b500290565b6000821982111561124d5761124d61111b565b500190565b634e487b7160e01b600052604160045260246000fd5b634e487b7160e01b600052603260045260246000fd5b60008161128d5761128d61111b565b50600019019056fea264697066735822122020fe3568a720b6a5721347f6de3026d8d7b60a3613a7d0fa004a83ac437f652664736f6c634300080a0033",
  "immutableReferences": {},
  "source": "// SPDX-License-Identifier: BUSL-1.1\npragma solidity 0.8.10;\n\nimport {Errors} from '../libraries/helpers/Errors.sol';\nimport {AggregatorInterface} from '../interfaces/AggregatorInterface.sol';\nimport {ISeerOracle} from '../interfaces/ISeerOracle.sol';\n\nimport \"@openzeppelin/contracts-upgradeable/access/AccessControlUpgradeable.sol\";\nimport \"@openzeppelin/contracts-upgradeable/access/OwnableUpgradeable.sol\";\n\n/**\n  * @title SeerOracle\n  * @author ESOLLABS\n  * @notice Contract to set asset price, manage price source.\n*/\ncontract SeerOracle is \n  AccessControlUpgradeable,\n  OwnableUpgradeable,\n  AggregatorInterface,\n  ISeerOracle\n  {  \n  uint8 DECIMALS;\n  uint80 public constant ROUND_DEFAULT = 1;\n  uint VERSION;\n  string DESCRIPTION;\n  \n  // mapping(LatestRound => answer)\n  mapping(uint256 => int256) public GetAnswer;\n  //mapping(LatestTimestamp => timestamp)\n  mapping(uint256=>uint256) public GetTimestamp;\n  //mapping(LatestTimestamp => timestamp)\n  mapping(uint256=>uint256) private GetStartedAt;\n\n  struct AssetsPrice {    \n    int256 price;\n    uint80 round;\n    string symbol;\n    uint256 updatedTime;\n  }\n  AssetsPrice assetDetail;\n\n  // set up roles\n  bytes32 public constant SET_PRICE_ROLE = keccak256(\"SET_PRICE_ROLE\");\n  bytes32 public constant GET_PRICE_ROLE = keccak256(\"GET_PRICE_ROLE\");\n  bytes32 public constant REGISTER_ASSET_ROLE = keccak256(\"REGISTER_ASSET_ROLE\");\n  bytes32 public constant UPDATE_ROUND_ROLE = keccak256(\"UPDATE_ROUND_ROLE\");\n  \n  // events\n  event UpdateAnswer(address _from, int256 _price, uint80 _round, uint256 _updateTime);\n  event InitAsset(address _from, int256 _price, string _symbol, uint256 _updateTime);\n\n  constructor (int256 _price, string memory _symbol, string memory _description, uint256 _version, uint8 _decimal) {\n    uint256 timeNow = block.timestamp;\n    // AssetsPrice memory assetDetail;\n    assetDetail.price = _price;\n    assetDetail.round = ROUND_DEFAULT;\n    assetDetail.symbol = _symbol;\n    assetDetail.updatedTime = timeNow;\n    DESCRIPTION = _description;\n    VERSION = _version;\n    DECIMALS = _decimal;\n    // update data by round\n    GetAnswer[ROUND_DEFAULT] = _price;\n    GetTimestamp[ROUND_DEFAULT] =  timeNow;\n    GetStartedAt[ROUND_DEFAULT] = timeNow;\n    emit InitAsset(msg.sender, _price, _symbol, timeNow);\n  }\n\n  /// init access roles\n  function initialize() external initializer {\n    __AccessControl_init();\n    _setupRole(DEFAULT_ADMIN_ROLE, msg.sender);\n    _setupRole(GET_PRICE_ROLE, msg.sender);\n    _setupRole(SET_PRICE_ROLE, msg.sender);\n    _setupRole(UPDATE_ROUND_ROLE, msg.sender);\n  }\n\n  /// @inheritdoc ISeerOracle\n  function updateAnswer(int256 _price) \n    external override \n    onlyRole(SET_PRICE_ROLE) \n  {\n    require(_price > 0, Errors.PRICE_MUST_BE_GREATER_THAN_ZERO);\n    uint256 timeNow = block.timestamp;\n    assetDetail.price = _price;\n    assetDetail.round ++;\n    assetDetail.updatedTime = timeNow;\n    // update data by round\n    GetAnswer[assetDetail.round] = _price;\n    GetTimestamp[assetDetail.round] = timeNow;\n    GetStartedAt[assetDetail.round] = timeNow;\n    emit UpdateAnswer(msg.sender, _price, assetDetail.round, timeNow);\n  }\n\n  /// @inheritdoc ISeerOracle\n  function updateRoundData(\n    uint80 _roundId,\n    int256 _answer,\n    uint256 _timestamp,\n    uint256 _startedAt\n  ) external \n    override \n    onlyRole(UPDATE_ROUND_ROLE) \n  {\n    require(GetAnswer[_roundId] > 0, Errors.INVALID_ANSWER_IN_ROUND);\n    GetAnswer[_roundId] = _answer;\n    GetTimestamp[_roundId] = _timestamp;\n    GetStartedAt[_roundId] = _startedAt;\n  }\n\n  /// @inheritdoc ISeerOracle\n  function getAssetPrice() \n    external view override\n    returns(int256) \n  {\n    return assetDetail.price;\n  }\n\n  /// @inheritdoc AggregatorInterface\n  function latestAnswer() \n    external view override  \n    returns (int256) \n  {\n    return assetDetail.price;\n  }\n\n  /// @inheritdoc AggregatorInterface\n  function latestTimestamp() \n    external view override \n    returns(uint256) \n  {\n    return assetDetail.updatedTime;\n  }\n\n\n  /// @inheritdoc AggregatorInterface\n  function getAnswer(uint80 _roundId) \n    external view override \n    returns(int256) \n  {\n    return GetAnswer[_roundId];\n  }\n\n  /// @inheritdoc AggregatorInterface\n  function getTimestamp(uint80 _roundId) \n    external view override \n    returns(uint256) \n  {\n    return GetTimestamp[_roundId];\n  }\n\n  /// @inheritdoc AggregatorInterface\n  function latestRound() \n    external view override \n    returns(uint80) \n  {\n    return assetDetail.round;\n  }\n  \n  /// @inheritdoc AggregatorInterface\n  function decimals() \n    external view override \n    returns(uint8) \n  {\n    return DECIMALS;\n  }\n\n  /// @inheritdoc AggregatorInterface\n  function description() \n    external view override \n    returns(string memory) \n  {\n    return DESCRIPTION;\n  }\n\n  /// @inheritdoc AggregatorInterface\n  function version() \n    external view override \n    returns(uint256)\n  {\n    return VERSION;\n  }\n\n  /// @inheritdoc AggregatorInterface\n  function getRoundData(uint80 _roundId)\n    external\n    view\n    returns (uint80, int256, uint256, uint256, uint80)\n  {\n    return (\n      _roundId,\n      GetAnswer[_roundId],\n      GetStartedAt[_roundId],\n      GetTimestamp[_roundId],\n      _roundId\n    );\n  }\n\n  /// @inheritdoc AggregatorInterface\n  function latestRoundData()\n    external\n    view\n    override\n    returns (uint80, int256, uint256, uint256, uint80)\n  {\n    return (\n      assetDetail.round,\n      assetDetail.price,\n      GetStartedAt[assetDetail.round],\n      assetDetail.updatedTime,\n      assetDetail.round\n    );\n  }\n\n}",
  "sourcePath": "/Users/tram/SourceCode/Lab/Defi/smc-price-oracle/contracts/protocol/SeerOracle.sol",
  "compiler": {
    "name": "solc",
    "version": "0.8.10+commit.fc410830.Emscripten.clang"
  },
  "schemaVersion": "3.4.7",
  "updatedAt": "2022-05-23T11:07:33.714Z",
  "networkType": "ethereum",
  "devdoc": {
    "author": "ESOLLABS",
    "kind": "dev",
    "methods": {
      "getAnswer(uint80)": {
        "params": {
          "roundId": "Round id of asset.*"
        }
      },
      "getRoleAdmin(bytes32)": {
        "details": "Returns the admin role that controls `role`. See {grantRole} and {revokeRole}. To change a role's admin, use {_setRoleAdmin}."
      },
      "getRoundData(uint80)": {
        "params": {
          "roundId": "Round id of asset.*"
        }
      },
      "getTimestamp(uint80)": {
        "params": {
          "roundId": "Round id of asset.*"
        }
      },
      "grantRole(bytes32,address)": {
        "details": "Grants `role` to `account`. If `account` had not been already granted `role`, emits a {RoleGranted} event. Requirements: - the caller must have ``role``'s admin role."
      },
      "hasRole(bytes32,address)": {
        "details": "Returns `true` if `account` has been granted `role`."
      },
      "owner()": {
        "details": "Returns the address of the current owner."
      },
      "renounceOwnership()": {
        "details": "Leaves the contract without owner. It will not be possible to call `onlyOwner` functions anymore. Can only be called by the current owner. NOTE: Renouncing ownership will leave the contract without an owner, thereby removing any functionality that is only available to the owner."
      },
      "renounceRole(bytes32,address)": {
        "details": "Revokes `role` from the calling account. Roles are often managed via {grantRole} and {revokeRole}: this function's purpose is to provide a mechanism for accounts to lose their privileges if they are compromised (such as when a trusted device is misplaced). If the calling account had been revoked `role`, emits a {RoleRevoked} event. Requirements: - the caller must be `account`."
      },
      "revokeRole(bytes32,address)": {
        "details": "Revokes `role` from `account`. If `account` had been granted `role`, emits a {RoleRevoked} event. Requirements: - the caller must have ``role``'s admin role."
      },
      "supportsInterface(bytes4)": {
        "details": "See {IERC165-supportsInterface}."
      },
      "transferOwnership(address)": {
        "details": "Transfers ownership of the contract to a new account (`newOwner`). Can only be called by the current owner."
      },
      "updateAnswer(int256)": {
        "params": {
          "_price": "Price update for asset.*"
        }
      },
      "updateRoundData(uint80,int256,uint256,uint256)": {
        "params": {
          "_answer": "Price update for asset.",
          "_roundId": "Round update for asset.",
          "_startedAt": "Start time round.*",
          "_timestamp": "Timestamp update."
        }
      }
    },
    "title": "SeerOracle",
    "version": 1
  },
  "userdoc": {
    "kind": "user",
    "methods": {
      "decimals()": {
        "notice": "Get decimals of asset.*"
      },
      "description()": {
        "notice": "Get description of asset.*"
      },
      "getAnswer(uint80)": {
        "notice": "Get price by roundId of asset."
      },
      "getAssetPrice()": {
        "notice": "Get lastest price of asset.*"
      },
      "getRoundData(uint80)": {
        "notice": "Get data by round of asset."
      },
      "getTimestamp(uint80)": {
        "notice": "Get updated time by roundId of asset."
      },
      "initialize()": {
        "notice": "init access roles"
      },
      "latestAnswer()": {
        "notice": "Get lastest price of asset.*"
      },
      "latestRound()": {
        "notice": "Get lastest round of asset.*"
      },
      "latestRoundData()": {
        "notice": "Get data by lastest round of asset.*"
      },
      "latestTimestamp()": {
        "notice": "Get lastest updated time of asset.*"
      },
      "updateAnswer(int256)": {
        "notice": "Update price for asset."
      },
      "updateRoundData(uint80,int256,uint256,uint256)": {
        "notice": "Update round data for asset."
      },
      "version()": {
        "notice": "Get version current of asset.*"
      }
    },
    "notice": "Contract to set asset price, manage price source.",
    "version": 1
  }
}